:100000000C941B020C9443020C9443020C94430284
:100010000C9443020C9443020C9443020C9443024C
:100020000C9443020C9443020C9443020C9443023C
:100030000C9443020C9443020C9443020C9443022C
:100040000C946D0C0C9443020C94DD0C0C94B70CC6
:100050000C9443020C9443020C9443020C9443020C
:100060000C9443020C944302436F6D6D616E647394
:100070003A20683D72652D63616C2020703D70727E
:100080006574656E642D686F6D65642020733D73C3
:10009000746F702020633D636C6561722D666175BD
:1000A0006C74002073746570732F730043616C204F
:1000B0006D6F76652073706565643A20202000209E
:1000C00073746570732F730043616C2068756E7470
:1000D0002073706565643A20202000207374657079
:1000E000732F735E32004A6F7920616363656C65BC
:1000F000726174696F6E3A20002073746570732F9B
:1001000073004A6F79206D61782073706565643A79
:10011000202020200020202020202020484F4D4556
:100120003D4131204641523D413220204649524511
:100130003D4435204A4F593D41300050696E733A75
:100140002020535445503D443220204449523D44E0
:10015000332020454E413D44342020534F4C3D44F4
:1001600039000A3D3D3D2046554C4C2042454E430A
:10017000482054455354203D3D3D00206D6D2E00D8
:100180005B415849535D20464152206C696D69744A
:10019000206869742E20536E617070656420746FDE
:1001A00020005B415849535D20484F4D45206C6904
:1001B0006D6974206869742E2052652D7A65726F9E
:1001C00065642E005B415849535D20526561647936
:1001D0002028484F4D45442061742063656E746546
:1001E00072292E005B415849535D204641554C54BD
:1001F0003A20484F4D452068697420647572696ED5
:1002000067204641522073656172636820286368E5
:1002100065636B20646972656374696F6E29002081
:100220006D6D292E2E2E00206D6D2E204D6F76695E
:100230006E6720746F2063656E7465722028005BA2
:10024000415849535D2046415220666F756E642EB9
:10025000204C656E677468203D20005B415849530F
:100260005D20484F4D4520666F756E642E20506F9F
:10027000736974696F6E203D20302E205365617262
:100280006368696E6720666F72204641522E2E2E7B
:10029000005B415849535D20484F4D4520666F75BE
:1002A0006E642E204E6F20464152206C696D697439
:1002B00020E280942063616C6962726174696F6E80
:1002C00020646F6E652E005B415849535D20466186
:1002D000756C7420636C65617265642E2052652DA7
:1002E000686F6D65206265666F7265206D6F7669F7
:1002F0006E672E00636F6F6C004649524500726452
:100300007900206B69636B3D004C002E2E0050522B
:1003100000204641523D004C002E2E005052006FEE
:100320006666004F4E200020484F4D453D00206539
:100330006E613D00206465666C3D002F0020706F8B
:10034000733D00617869733D00434F4F4C444F57F4
:100350004E00464952494E470049444C45005B53C4
:100360004F4C205D202D3E20005B415849535D20BD
:100370002D3E20005B434D445D2073746F70005B25
:10038000434D445D2070726574656E6420484F4D26
:100390004544005B434D445D2072652D63616C698B
:1003A00062726174696E670000000000240027001B
:1003B0002A0000000000250028002B00000000009B
:1003C0002300260029000404040404040404020297
:1003D00002020202030303030303010204081020C4
:1003E00040800102040810200102040810200000CF
:1003F00000080002010000030407000000000000E4
:1004000000005B415849535D2043616C6962726131
:1004100074696F6E20737461727465643A207365D9
:1004200061726368696E6720666F7220484F4D4540
:100430002E2E2E000F0D11241FBECFEFD8E0DEBFF1
:10044000CDBF11E0A0E0B1E0EEE6F4E302C005901C
:100450000D92A43BB107D9F722E0A4EBB1E001C0B3
:100460001D92A63FB207E1F712E0CBE1D2E004C053
:100470002197FE010E946C16CA31D107C9F70E946C
:10048000440E0C94351A0C940000CF92DF92EF9238
:10049000FF920F931F93CF93DF9380916E028E3064
:1004A00008F08E508770806480937C0080917A0081
:1004B000806480937A0080917A0086FDFCCFC091A1
:1004C0007800D0917900D25000917102109172029F
:1004D00088279927801B910B8C179D0734F460E0C7
:1004E00070E0CB01C017D107E4F06FEF71E0601B43
:1004F000710B072E000C880B990B0E948E176B0155
:100500007C01BE011C161D06ACF4601B710B072E8E
:10051000000C880B990B0E948E17A70196010E9470
:10052000E416DF91CF911F910F91FF90EF90DF9034
:10053000CF900895600F711FEACFCF92DF92EF92B4
:10054000FF9220E030E0A90160919D0270919E022F
:1005500080919F029091A0020E94DF16882321F1D2
:10056000C090A102D090A202E090A302F090A40259
:1005700020E030E0A901C701B6010E94DF1687FD27
:1005800018C0109288021092890210928A0210926A
:100590008B02C12CD12C7601C0929D02D0929E027A
:1005A000E0929F02F092A002FF90EF90DF90CF9038
:1005B0000895F7FAF094F7F8F094A701960160E037
:1005C00074E284E799E40E94E4169F770E945D1725
:1005D000609388027093890280938A0290938B02C1
:1005E00081E080938702D8CFDC01ED91FC912285D8
:1005F0003385477055276627772741505109610990
:100600007109473051056105710560F4FA01E55F34
:10061000FC4F0C946C161503170319031B031D03E1
:100620001F03210361E0F901099465E0FCCF64E058
:10063000FACF66E0F8CF62E0F6CF6AE0F4CF68E088
:10064000F2CF69E0F0CFCF93DF93EC01CB01BA0199
:1006500026E030E040E050E00E944D166230710527
:100660008105910589F16CF461157105810591058C
:10067000D1F06130710581059105F9F0DF91CF91DD
:100680000895643071058105910561F124F16530AB
:1006900071058105910591F7E881F9810284F3855F
:1006A000E02D66E006C0E881F9810284F385E02D43
:1006B00064E0CE01DF91CF910994E881F981028451
:1006C000F385E02D65E0F5CFE881F9810284F385BB
:1006D000E02D61E0EECFE881F9810284F385E02D21
:1006E00063E0E7CFE881F9810284F385E02D62E0E1
:1006F000E0CFDC01ED91FC910284F385E02D4370A5
:10070000552766277727423051056105710571F03D
:10071000433051056105710559F0413051056105BE
:10072000710511F065E0099466E0FDCF6AE0FBCF4A
:1007300069E0F9CFCF93DF93EC01CB01BA0123E05D
:1007400030E040E050E00E944D16613071058105B7
:10075000910599F06230710581059105A9F0672B2B
:10076000682B692BC1F4E881F9810284F385E02DBF
:1007700064E0CE01DF91CF910994E881F981028490
:10078000F385E02D61E0F5CFE881F9810284F385FE
:10079000E02D62E0EECFDF91CF910895DC01ED9185
:1007A000FC910284F385E02D437055276627772757
:1007B000423051056105710571F043305105610505
:1007C000710559F0413051056105710511F062E084
:1007D000099463E0FDCF61E0FBCF60E0F9CFCF93F8
:1007E000DF93EC01E881F9810284F385E02D8A81B1
:1007F00060E0811162E0CE010995E881F98102840F
:10080000F385E02D8A8161E0811163E0CE010995D5
:100810008CA59DA58230910538F0880F991F880F0F
:10082000991F05970197F1F7E881F9810284F38513
:10083000E02D8A8160E0811162E0CE01DF91CF91ED
:100840000994CF93DF93EC0120E030E0A901688D9B
:10085000798D8A8D9B8D0E943E1818162CF4E8A97C
:10086000F9A9DF91CF910994EAA9FBA9FACFDC019C
:100870001796EC911797E93008F038C0F0E0ED5B7F
:10088000FB4F0C946C164C04520458045E04640430
:1008900076046A0476047004ED91FC910684F78571
:1008A000E02D0994ED91FC910088F189E02DF9CFBC
:1008B000ED91FC910288F389E02DF3CFED91FC914D
:1008C0000488F589E02DEDCFED91FC910688F7893C
:1008D000E02DE7CFED91FC91008CF18DE02DE1CF83
:1008E000ED91FC91028CF38DE02DDBCF0895CF923A
:1008F000DF92EF92FF920F931F93CF93DF93EC0160
:100900006A017B0120E030E0A901CB01B6010E9421
:10091000DF1687FF04C0F7FAF094F7F8F094A70108
:1009200096016C8D7D8D8E8D9F8D0E94DF168823A4
:1009300009F44AC0CC8EDD8EEE8EFF8E8E01005CF7
:100940001F4FA701960160E074E284E799E40E94DA
:10095000E416F80160837183828393838CA99DA937
:10096000AEA9BFA9181619061A061B066CF5688DE4
:10097000798D8A8D9B8D9B01AC010E9443186B0180
:100980007C0168A179A18AA19BA19B01AC010E9475
:1009900073169B01AC01C701B6010E94E4160E94C8
:1009A00056176CAB7DAB8EAB9FABE881F9810084B1
:1009B000F185E02DCE01DF91CF911F910F91FF9036
:1009C000EF90DF90CF900994DF91CF911F910F911D
:1009D000FF90EF90DF90CF9008954F925F926F92CB
:1009E0007F928F929F92AF92BF92CF92DF92EF92BF
:1009F000FF920F931F93CF93DF93EC01CC88DD8898
:100A0000EE88FF8888899989AA89BB89C81AD90A7A
:100A1000EA0AFB0A688D798D8A8D9B8D9B01AC015A
:100A20000E9443184B015C0168A179A18AA19BA196
:100A30009B01AC010E9473169B01AC01C501B4017E
:100A40000E94E4160E945617C114D104E104F10477
:100A500009F0B6C062307105810591050CF0D0C077
:100A60001B821C821D821E82188E198E1A8E1B8E6E
:100A70001CAA1DAA1EAA1FAAC12CD12C7601C7012F
:100A8000B601DF91CF911F910F91FF90EF90DF9012
:100A9000CF90BF90AF909F908F907F906F905F901E
:100AA0004F9008951016110612061306B4F46C1533
:100AB0007D058E059F051CF42A812111A1C09B0193
:100AC000AC0188279927DC01821B930BA40BB50B83
:100AD0008CAB9DABAEABBFAB93C00115110521052F
:100AE000310509F48DC06C157D058E059F050CF050
:100AF00087C08A81882309F483C03095209510959A
:100B000001951F4F2F4F3F4F0CAB1DAB2EAB3FAB93
:100B100077C0011511052105310509F471C088243C
:100B2000992454018C189D08AE08BF0868157905F2
:100B30008A059B050CF064C08A81811161C0DDCFFC
:100B4000CCACDDACEEACFFACA7019601C701B601A1
:100B50000E9473162B013C01C501B4010E948E173F
:100B600020E030E040E850E40E94431820E030E00C
:100B700040E85FE30E9473169B01AC01C301B20120
:100B80000E94E4169B01AC01C701B6010E947216D7
:100B90003B016C01FE01E05CFF4FE080F1800281CF
:100BA00013819701A8010E943E18181614F47301CE
:100BB0008601C701D8018CAF9DAFAEAFBFAF3AC0C1
:100BC0000CA91DA92EA93FA91C141D041E041F0455
:100BD0000CF468CF10161106120613060CF099CF0C
:100BE0000027112798010C191D092E093F096017CC
:100BF0007107820793070CF062CF2A8121115FCF22
:100C00008CA89DA8AEA8BFA881149104A104B1042A
:100C100009F096CF88AD99ADAAADBBAD8CAF9DAFB5
:100C2000AEAFBFAF81E01C141D041E041F040CF006
:100C300080E08A833FEF831A930AA30AB30A8CAA3F
:100C40009DAAAEAABFAA8CAC9DACAEACBFACC50190
:100C5000B4010E945D176B017C01CB82DC82ED82C6
:100C6000FE82A501940160E074E284E799E40E94A9
:100C7000E416688F798F8A8F9B8F2A812111FFCE8E
:100C80009058688F798F8A8F9B8FF9CECF92DF92A1
:100C9000EF92FF928091880290918902A0918A023E
:100CA000B0918B02892B8A2B8B2B09F46FC03FB735
:100CB000F8948091C0019091C101A091C201B091BE
:100CC000C30126B5A89B05C02F3F19F00196A11DB1
:100CD000B11D3FBFBA2FA92F982F88276C017D0126
:100CE000C20ED11CE11CF11C42E0CC0CDD1CEE1C40
:100CF000FF1C4A95D1F78091AD029091AE02A09170
:100D0000AF02B091B002B701A601481B590B6A0BA4
:100D10007B0B8091880290918902A0918A02B09108
:100D20008B02481759076A077B0780F1809195026B
:100D300090919602A0919702B0919802209187021B
:100D4000222309F44EC00196A11DB11D8093950286
:100D500090939602A0939702B093980240919502C7
:100D600050919602609197027091980285E892E006
:100D70000E943704C092AD02D092AE02E092AF0260
:100D8000F092B00285E892E00E94ED0420E030E0AD
:100D9000A90160919D0270919E0280919F029091A5
:100DA000A0020E94DF16811120C081E0C09099024C
:100DB000D0909A02E0909B02F0909C0240919502A4
:100DC000509196026091970270919802C416D506D0
:100DD000E606F70609F480E0FF90EF90DF90CF90F1
:100DE00008950197A109B109B1CF81E0F5CF0F9323
:100DF0001F93DC0154960D911D912D913C915797B5
:100E0000041715072607370771F0FC01448B558B33
:100E1000668B778B0190F081E02D0084F185E02DC9
:100E20001F910F9109941F910F9108954F925F9216
:100E30006F927F928F929F92AF92BF92CF92DF92EA
:100E4000EF92FF92CF93DF93EC01488C598C6A8C20
:100E50007B8C20E030E0A901C301B2010E94DF16C3
:100E6000882309F447C0A3019201C301B2010E9483
:100E700043186B017C0168A179A18AA19BA19B0108
:100E8000AC010E9473169B01AC01C701B6010E9420
:100E9000E4160E9456176B017C0188889988AA88FD
:100EA000BB8820E030E0A901C301B2010E943E18D6
:100EB000B701A6011816CCF44F5F5F4F6F4F7F4FFD
:100EC000480D591D6A1D7B1DCE01DF91CF91FF900A
:100ED000EF90DF90CF90BF90AF909F908F907F90DA
:100EE0006F905F904F900C94F706409550956095E9
:100EF0007095E6CFDF91CF91FF90EF90DF90CF908C
:100F0000BF90AF909F908F907F906F905F904F9029
:100F100008950895833081F028F4813099F082306B
:100F2000A9F008958730A9F08830C9F08430B1F471
:100F3000809180008F7D03C0809180008F778093A7
:100F40008000089584B58F7784BD089584B58F7D22
:100F5000FBCF8091B0008F778093B000089580918F
:100F6000B0008F7DF9CFCF93DF93282F30E0F901C8
:100F7000E251FC4F8491F901E652FC4FD491F90102
:100F8000EA53FC4FC491CC23A1F081110E948A073F
:100F9000EC2FF0E0EE0FFF1FE454FC4FA591B4914D
:100FA000EC91ED2381E090E009F480E0DF91CF91B6
:100FB000089580E090E0FACF8091CA028F3F29F037
:100FC0000E94B30721E0019709F020E0822F0895E5
:100FD0001F93CF93DF93282F30E0F901E251FC4FAC
:100FE0008491F901E652FC4FD491F901EA53FC4F88
:100FF000C491CC23A9F0162F81110E948A07EC2FEF
:10100000F0E0EE0FFF1FEE54FC4FA591B4918FB7A7
:10101000F894EC91111108C0D095DE23DC938FBFBA
:10102000DF91CF911F910895DE2BF8CFCF92DF9201
:10103000EF92FF920F931F93CF93DF93DC011796EC
:10104000CC91C43039F0C83059F1C33019F0C630F2
:1010500049F1C2E08C01085F1F4FF12CE12CC62E34
:10106000D12CD1E0F8016481C6010E2C02C0959507
:1010700087950A94E2F780FD6D270F5F1F4F8081EF
:101080000E94E807BFEFEB1AFB0AEC1658F3DF915A
:10109000CF911F910F91FF90EF90DF90CF90089527
:1010A000C4E0D8CFC3E0D6CFCF93DF9390E0FC016C
:1010B000E652FC4F24918A539C4FFC018491882373
:1010C000D1F090E0880F991FFC01E855FC4FA591E5
:1010D000B491FC01EE54FC4FC591D491623071F48F
:1010E0009FB7F8943C91822F809583238C93E8815D
:1010F0002E2B28839FBFDF91CF9108958FB7F8944F
:10110000EC912E2B2C938FBFF6CFCF93DF93FC0166
:101110002781222359F1EC0161E080850E94540867
:1011200061E089850E9454088F81843011F08830F5
:10113000B1F461E08A850E94540861E08B850E94C9
:1011400054088FA58F3F91F061E00E9454086EA56E
:1011500081E068278FA5DF91CF910C94E807833059
:1011600011F0863071F761E08A85E9CFDF91CF9188
:101170000895CF93DF93FC0127812223A9F0EC018E
:101180000190F081E02D0284F385E02D60E0099567
:101190008FA58F3F49F061E00E9454086EA58FA58E
:1011A000DF91CF910C94E807DF91CF910895AF9232
:1011B000BF92CF92DF92EF92FF920F931F93CF9344
:1011C000DF936C017B018B01040F151FEB015E01A6
:1011D000AE18BF08C017D10759F06991D601ED913B
:1011E000FC910190F081E02DC6010995892B79F7DA
:1011F000C501DF91CF911F910F91FF90EF90DF908C
:10120000CF90BF90AF900895FC01538D448D252F52
:1012100030E0842F90E0821B930B541710F0CF9690
:10122000089501970895FC01918D828D981761F0C2
:10123000A28DAE0FBF2FB11D5D968C91928D9F5FD9
:101240009F73928F90E008958FEF9FEF0895FC01B8
:10125000918D828D981731F0828DE80FF11D858D6B
:1012600090E008958FEF9FEF0895FC01918D228DFE
:10127000892F90E0805C9F4F821B91098F73992783
:10128000089584EC91E00E94350921E0892B09F44E
:1012900020E0822F089580E090E0892B29F00E94C1
:1012A000410981110C9400000895FC01A48DA80F40
:1012B000B92FB11DA35ABF4F2C91848D90E0019698
:1012C0008F739927848FA689B7892C93A089B189B8
:1012D0008C91837080648C93938D848D981306C059
:1012E0000288F389E02D80818F7D80830895EF92BD
:1012F000FF920F931F93CF93DF93EC0181E0888FD0
:101300009B8D8C8D98131AC0E889F989808185FF9F
:1013100015C09FB7F894EE89FF896083E889F98941
:1013200080818370806480839FBF81E090E0DF9143
:10133000CF911F910F91FF90EF900895F62E0B8D96
:1013400010E00F5F1F4F0F731127E02E8C8D8E1151
:101350000CC00FB607FCFACFE889F989808185FFB8
:10136000F5CFCE010E945509F1CFEB8DEC0FFD2F8B
:10137000F11DE35AFF4FF0829FB7F8940B8FEA8973
:10138000FB8980818062CFCF0F931F93CF93DF9330
:101390008C01D0E0C0E0F801EC0FFD1F64916623E2
:1013A00041F084EC91E00E947709892B11F021969D
:1013B000F2CFCE01DF91CF911F910F910895CF937E
:1013C000DF93EC01888D8823B9F0AA89BB89E8896D
:1013D000F9898C9185FD03C0808186FD0DC00FB613
:1013E00007FCF7CF8C9185FFF2CF808185FFEDCF91
:1013F000CE010E945509E9CFDF91CF910895CF9397
:10140000DF93EC01FC01EA5BFF4F80818F3F51F0DD
:10141000C95BDF4F9881911105C060E00E94E80729
:1014200081E08883DF91CF910895CF92DF92EF9290
:10143000FF920F931F93CF93DF93EC018C0105591B
:101440001F4FF801208131812550310923303105AA
:1014500030F5CB01BA01B3972081318142815381AC
:101460000E9443180E945617FE01E959FF4FC080A1
:10147000D180E280F380AB01BC014C0D5D1D6E1D7F
:101480007F1D88899989AA89BB89481759076A07E6
:101490007B0774F43297808131968823A9F0DF911D
:1014A000CF911F910F91FF90EF90DF90CF90089513
:1014B00084179507A607B70794F7FE01EA59FF4F6F
:1014C00080818111ECCF31971082CE010E94F70606
:1014D00086E090E0F80191838083E1CF4F925F92A4
:1014E0006F927F928F929F92AF92BF92CF92DF9234
:1014F000EF92FF926B017C0120E030E0A9010E9495
:10150000DF1687FF04C0F7FAF094F7F8F0948090A4
:10151000A5029090A602A090A702B090A802A701F1
:101520009601C501B4010E94DF16882309F458C052
:101530006091B9027091BA028091BB029091BC0295
:101540000E948E172B013C01A7019601C501B40131
:101550000E94E4169B01AC01C301B2010E94431832
:101560000E9456176093B9027093BA028093BB022F
:101570009093BC02A701960160E070E080E090E4E7
:101580000E94E4160E94B61826E53EE04DE25FE3B5
:101590000E94431820E034E244E759E40E944318D3
:1015A0006093BD027093BE028093BF029093C0020D
:1015B000C092A502D092A602E092A702F092A802E1
:1015C00085E892E0FF90EF90DF90CF90BF90AF90D2
:1015D0009F908F907F906F905F904F900C94ED0450
:1015E000FF90EF90DF90CF90BF90AF909F908F9043
:1015F0007F906F905F904F900895FC0101900020C4
:10160000E9F73197AF01481B590BBC0184EC91E01D
:101610000C94D7088AE491E00C94FD0ACF93DF93F1
:101620000E94C409EC010E940A0B8C0F9D1FDF91E0
:10163000CF91089582E094E00E940E0B85E892E03D
:101640000E94FF091092D9021092EA021092EB0256
:1016500040E050E060EF72E485E892E00E94770499
:1016600060E070E088E492E40E946E0A4091950286
:1016700050919602609197027091980240545244A2
:101680006F40710985E892E00E94F70681E090E0E2
:101690009093F1028093F00208958F929F92AF92FF
:1016A000BF920F931F93CF93DF93CDB7DEB7A19770
:1016B0000FB6F894DEBF0FBECDBF19A2423008F4BA
:1016C0004AE08E010F5D1F4F842E912CB12CA12C6E
:1016D000A50194010E942B16E62FB901CA01EA3038
:1016E000F4F4E05DD801EE938D01232B242B252B00
:1016F00079F790E080E0109719F0CD010E94FD0A83
:10170000A1960FB6F894DEBF0FBECDBFDF91CF918B
:101710001F910F91BF90AF909F908F900895E95CBB
:10172000E1CF4F925F926F927F928F929F92AF9292
:10173000BF92CF92DF92EF92FF92CF93DF936B0134
:101740007C01D42FAC019B010E94F618882391F0F4
:101750008DE491E0DF91CF91FF90EF90DF90CF90FB
:10176000BF90AF909F908F907F906F905F904F90C1
:101770000C94FD0A26013701E89477F82FEF3FEF2C
:101780004FE75FE7C301B2010E94F61881110DC057
:101790002FEF3FEF4FE75FE7C301B2010E94DF1673
:1017A00018161CF481E591E0D5CF2FEF3FEF4FE7FE
:1017B0005FE4C701B6010E943E1818161CF485E5C7
:1017C00091E0C8CF2FEF3FEF4FE75FECC701B601C5
:1017D0000E94DF1687FDF3CF20E030E0A901C701AA
:1017E000B6010E94DF16912C812C87FF0AC06DE2A2
:1017F00084EC91E00E9477094C01F7FAF094F7F835
:10180000F094CD2FA12C60E070E080E09FE3AD1656
:1018100040F420E030E040E251E40E94E416A3945A
:10182000F6CFA70196010E9473162B013C010E947E
:101830005D175B016C014AE00E944D0B7C01E80CD6
:10184000F91CDD23C1F1C601B5010E948C179B0173
:10185000AC01C301B2010E9472164B015C016EE241
:1018600084EC91E00E947709E80EF91EC15018F14E
:1018700020E030E040E251E4C501B4010E94431889
:101880002B013C010E945D174B01B12CA12C4AE0B9
:10189000C501B4010E944D0BE80EF91EC501B4014B
:1018A0000E948C179B01AC01C301B2010E94721609
:1018B0004B015C01DBCFC701DF91CF91FF90EF902F
:1018C000DF90CF90BF90AF909F908F907F906F9060
:1018D0005F904F9008950C94AC191F920F920FB621
:1018E0000F9211242F933F938F939F93AF93BF93A6
:1018F0008091BC019091BD01A091BE01B091BF014A
:101900003091BB0123E0230F2D3758F50196A11D1F
:10191000B11D2093BB018093BC019093BD01A093A6
:10192000BE01B093BF018091C0019091C101A0910F
:10193000C201B091C3010196A11DB11D8093C001E8
:101940009093C101A093C201B093C301BF91AF9125
:101950009F918F913F912F910F900FBE0F901F90ED
:10196000189526E8230F0296A11DB11DD2CF1F9214
:101970000F920FB60F9211242F933F934F935F93C3
:101980006F937F938F939F93AF93BF93EF93FF9347
:1019900084EC91E00E945509FF91EF91BF91AF91C6
:1019A0009F918F917F916F915F914F913F912F9177
:1019B0000F900FBE0F901F9018951F920F920FB6A9
:1019C0000F9211242F938F939F93EF93FF93E091A6
:1019D000D401F091D5018081E091DA01F091DB0131
:1019E00082FD1BC090818091DD018F5F8F732091FC
:1019F000DE01821741F0E091DD01F0E0EC53FE4F93
:101A0000958F8093DD01FF91EF919F918F912F91A1
:101A10000F900FBE0F901F9018958081F4CF0F93F9
:101A20001F93CF93DF93E4ECF1E01382128288EEF0
:101A300093E0A0E0B0E084839583A683B7838CE134
:101A400091E09183808385EC90E09587848784EC96
:101A500090E09787868780EC90E0918B808B81EC7B
:101A600090E0938B828B82EC90E0958B848B86EC5C
:101A700090E0978B868B118E128E138E148EC5E894
:101A8000D2E08EE291E09983888381E08F83188A87
:101A9000198A1A8A1B8A1C8A1D8A1E8A1F8A188E16
:101AA000198E1A8E1B8E1C8E1D8E1E8E1F8E18A2D6
:101AB00019A21AA21BA280E090E0A0E8BFE38CA3C9
:101AC0009DA3AEA3BFA31B821C821D821E8221E0A8
:101AD00030E03DA72CA72FEF2FA718A619A61AA60E
:101AE0001BA622E0288723E0298704E00A8715E067
:101AF0001B871EA61CAA1DAA1EAA1FAA18AE19AED5
:101B00001AAE1BAE1CAE1DAE1EAE1FAE8093C5023C
:101B10009093C602A093C702B093C8021A821C8693
:101B20001D861E861F86CE010E94850860E070E03B
:101B300080E89FE30E946E0A40E050E060E87FE3A7
:101B4000CE010E9477048FE08093C90280E18093E8
:101B5000CA020093CB021092CC0280E090E0A0E297
:101B6000B1E48093CD029093CE02A093CF02B093C4
:101B7000D00280E090E0AAEFB3E48093D10290938A
:101B8000D202A093D302B093D4028093D502909353
:101B9000D602A093D702B093D8021092D90280E067
:101BA00090E8A2E2B4E48093DA029093DB02A0937F
:101BB000DC02B093DD0240E050E068EC73E4409357
:101BC000DE025093DF026093E0027093E10240E096
:101BD00050E060EF72E44093E2025093E3026093BE
:101BE000E4027093E50242E350E060E070E040936D
:101BF000E6025093E7026093E8027093E9021092C4
:101C0000EA021092EB021092EC021092ED02109296
:101C1000EE021092EF021092F1021092F002EEE644
:101C2000F2E02EE02083D283C1832CE330E03483C2
:101C3000238385839683A783B08784E190E0A0E027
:101C4000B0E081879287A387B487158616861786AA
:101C5000108A118A128A138A148A158A168AE1E672
:101C6000F2E089E08083118312821382148215824C
:101C70001682178210861186128613861486DF91CB
:101C8000CF911F910F910895CF93DF9300D0CDB7DF
:101C9000DEB7789484B5826084BD84B5816084BDEC
:101CA00085B5826085BD85B5816085BD80916E00FA
:101CB000816080936E00109281008091810082602B
:101CC0008093810080918100816080938100809168
:101CD00080008160809380008091B1008460809357
:101CE000B1008091B00081608093B00080917A0053
:101CF000846080937A0080917A00826080937A0079
:101D000080917A00816080937A0080917A00806867
:101D100080937A001092C100E091D401F091D50136
:101D200082E08083E091D001F091D1011082E091B6
:101D3000D201F091D30180E180831092DC01E09127
:101D4000D801F091D90186E08083E091D601F0912D
:101D5000D701808180618083E091D601F091D70125
:101D6000808188608083E091D601F091D7018081E5
:101D700080688083E091D601F091D70180818F7DCA
:101D8000808382E691E00E940E0B8BE391E00E943B
:101D90000E0B85E191E00E940E0B0E940A0B82E07F
:101DA00091E00E94C40950E040E060E070E882E207
:101DB00094E40E94910B89EF90E00E940E0B86EE56
:101DC00090E00E94C40950E040E060E070E88BE3DE
:101DD00095E40E94910B8BED90E00E940E0B88EC35
:101DE00090E00E94C40950E040E060E070E080EFC5
:101DF00092E40E94910B8FEB90E00E940E0B8CEA14
:101E000090E00E94C40950E040E060E070E08AEF9A
:101E100093E40E94910B83EA90E00E940E0B0E94D3
:101E20000A0B88E690E00E940E0B0E940A0B62E00B
:101E30008091C9020E9454088091CA028F3F19F014
:101E400062E00E9454088091CB028F3F09F4ADC23A
:101E500061E00E94540861E08091CB020E94E80793
:101E60001092CC024091DA025091DB026091DC02C8
:101E70007091DD0285E892E00E947704C090DE0256
:101E8000D090DF02E090E002F090E10220E030E04C
:101E9000A901C701B6010E94DF16882321F0C701FE
:101EA000B6010E946E0A109295021092960210924C
:101EB0009702109298021092990210929A02109230
:101EC0009B0210929C021092B9021092BA021092D8
:101ED000BB021092BC0210928802109289021092EA
:101EE0008A0210928B0210929D0210929E02109212
:101EF0009F021092A0021092EC021092ED0210923A
:101F0000EE021092EF021092F1021092F00261E0E4
:101F1000809161020E94540860E0809161020E94F9
:101F2000E807809162028F3F19F062E00E94540836
:101F3000109263020E941A0BB7E06B2E712C00E026
:101F400010E08091F0029091F1028330910509F444
:101F5000E6C20CF02EC28130910509F466C20297E8
:101F600009F4D6C28FB7F894C090BC01D090BD01DF
:101F7000E090BE01F090BF018FBF8091630281307D
:101F800029F58091640290916502A0916602B0915A
:101F90006702A7019601281B390B4A0B5B0BDA017C
:101FA000C9018A3F9105A105B10580F060E08091EB
:101FB00061020E94E807C0926802D0926902E09232
:101FC0006A02F0926B0282E0809363028091630266
:101FD000813009F48FC4823009F4B2C48091620266
:101FE0008F3F09F0C4C410926D0210926C02809170
:101FF0006C02882319F180916D0281111FC08091BC
:10200000630281111BC02FB7F8948091BC0190919D
:10201000BD01A091BE01B091BF012FBF80936402AA
:1020200090936502A0936602B093670261E080918D
:1020300061020E94E80781E0809363028091F002D0
:102040009091F1020597039708F087C02FB7F89495
:102050008091BC019091BD01A091BE01B091BF01E2
:102060002FBF40917B0250917C0260917D02709164
:102070007E026C017D01C41AD50AE60AF70A409176
:102080007702509178026091790270917A02C416B9
:10209000D506E606F70608F460C080937B029093AD
:1020A0007C02A0937D02B0937E020E9445026B01E8
:1020B0007C0120E030E0A9010E94DF1690917F02B0
:1020C000811162C49923F1F0E0906F02F0907002E8
:1020D000C7010E941607F701E559FF4F80819181E2
:1020E000069721F447E050E05183408310927F022D
:1020F000109280021092810210928202109283024A
:102100001092840280916F0290917002FC01C48849
:10211000D588E688F7884089518962897389C41611
:10212000D506E606F706C9F47C01F7E4EF0EF11CCC
:10213000F7012081222389F06C01F6E4CF0ED11C37
:10214000F60120812F3F49F00E94160761E0F60159
:1021500080810E94E807F701108284EC91E00E94E0
:102160003509892B61F084EC91E00E9413098836CF
:1021700009F4CCC40CF0B1C4833609F433C5E09043
:10218000F002F090F1028091B9019091BA01E81645
:10219000F906E9F089E693E00E94C4098091F00213
:1021A0009091F1028930910508F030C5880F991F90
:1021B000FC01EA5FFE4F80819181009711F00E943F
:1021C000FD0A0E940A0BF092BA01E092B901F09068
:1021D00063028091B801F81689F08EE593E00E94C1
:1021E000C40921E0F21609F419C5F21608F411C564
:1021F00032E0F31609F415C5F092B8012FB7F89440
:102200008091BC019091BD01A091BE01B091BF0130
:102210002FBF4091B4015091B5016091B60170910A
:10222000B7016C017D01C41AD50AE60AF70AB701A5
:10223000A601443F51406105710508F4AAC080938E
:10224000B4019093B501A093B601B093B70183E4B4
:1022500093E00E94C4098091F0029091F1028930CC
:10226000910508F0E1C4880F991FFC01EA5FFE4F59
:1022700080819181009711F00E94FD0A8DE393E027
:102280000E94C40960919502709196028091970214
:1022900090919802C090EC02D090ED02E090EE0296
:1022A000F090EF026C197D098E099F090E948E172C
:1022B0002091CD023091CE024091CF025091D002B8
:1022C0000E94E41641E050E00E94910B8BE393E002
:1022D0000E94C4096091D5027091D6028091D70204
:1022E0009091D80250E040E00E94910B84E393E08B
:1022F0000E94C4090E94450242E050E00E94910BF6
:102300008EE293E00E94C4098091CC02882309F4F4
:102310008EC483E293E00E94C40987E293E00E94A6
:10232000C4098091C9020E94B307019709F082C4D1
:102330008CE193E00E94C4098091EA02882321F095
:1023400087E193E00E94C40981E193E00E94C409FF
:102350000E94DC07882309F470C48EE093E00E9499
:10236000C4098091EB02882321F089E093E00E9468
:10237000C40982E093E00E94C40980916302813025
:1023800009F463C408F45CC4823009F461C40E9497
:102390000A0B0115110509F4D4CD0E9441098823C7
:1023A00009F4CDCD0E940000CACD81E08093CC021B
:1023B00059CD8630910509F4B1C18730910509F4F2
:1023C000DDC1049709F0CECD4091990250919A0257
:1023D00060919B0270919C0280919502909196026F
:1023E000A0919702B0919802481759076A077B0796
:1023F00009F08BC04091DA025091DB026091DC025F
:102400007091DD0285E892E00E94770460E070E858
:102410008BE395E40E946E0AE5E0F0E0F093F102B0
:10242000E093F00284EC91E045C08091C9020E94E3
:10243000B307019709F069C08091950290919602C7
:10244000A0919702B09198028093EC029093ED02D4
:10245000A093EE02B093EF020E949D028091CA0207
:102460008F3F59F5409195025091960260919702E5
:102470007091980285E892E00E94F7068091D1025F
:102480009091D202A091D302B091D4028093D50250
:102490009093D602A093D702B093D80281E08093A4
:1024A000D902A5E0CA2ED12CD092F102C092F0023E
:1024B00081E992E00E940E0B55CD40E050E060EFC4
:1024C00072E485E892E00E94770460E070E088E4BE
:1024D00092E40E946E0A409195025091960260919A
:1024E000970270919802405C5D4B604F7F4F85E88A
:1024F00092E00E94F706F3E0EF2EF12CF092F10249
:10250000E092F0028BE592E0D5CF0E9446062ACDFC
:1025100025E030E03093F1022093F00223CD0E94B9
:10252000DC07882309F496C06091950270919602A9
:102530008091970290919802C090EC02D090ED02A9
:10254000E090EE02F090EF026C197D098E099F0970
:102550000E948E172091CD023091CE024091CF0281
:102560005091D0020E94E4166093D5027093D60277
:102570008093D7029093D80281E08093D9020E9481
:102580009D0220E030E040E05FE36091D502709171
:10259000D6028091D7029091D8020E9443182091D0
:1025A000CD023091CE024091CF025091D0020E94D4
:1025B00043180E945617C090EC02D090ED02E090B4
:1025C000EE02F090EF02C60ED71EE81EF91E40E0A4
:1025D00050E06AEF73E485E892E00E94770460E0DF
:1025E00070E08FE294E40E946E0AB701A60185E8CC
:1025F00092E00E94F70644E050E05093F1024093CD
:10260000F0028FE392E00E94C4096091D5027091BC
:10261000D6028091D7029091D80241E050E00E940A
:10262000910B87E292E00E94C40920E030E040E094
:102630005FE36091D5027091D6028091D7029091AC
:10264000D8020E94431841E050E00E94910B8FE1B4
:1026500092E030CF8091C9020E94B307019709F040
:1026600054CFC0909502D0909602E0909702F090DF
:1026700098028091EC029091ED02A091EE02B0914F
:10268000EF0246015701881A990AAA0ABB0A20E0FC
:1026900030E040EA50E46091CD027091CE0280912A
:1026A000CF029091D0020E9443189B01AC010E947E
:1026B00073160E945617681579058A059B050CF05C
:1026C00024CFC0929902D0929A02E0929B02F0929B
:1026D0009C021092B9021092BA021092BB021092A0
:1026E000BC02109288021092890210928A02109203
:1026F0008B0210929D0210929E0210929F021092E5
:10270000A00285E892E00E94160788E090E090938E
:10271000F1028093F00284EE91E0CCCE8091EC0245
:102720009091ED02A091EE02B091EF02809095029F
:1027300090909602A0909702B0909802881A990AF9
:10274000AA0ABB0AC0909902D0909A02E0909B021C
:10275000F0909C02C81AD90AEA0AFB0A8091C902C1
:102760000E94B307019729F4C814D904EA04FB04B2
:102770002CF18091CA028F3F09F04DC00E9446069D
:102780004091990250919A0260919B0270919C0233
:102790008091950290919602A0919702B091980233
:1027A000481759076A077B0709F0DCCBE5E0CE2E16
:1027B000D12CD092F102C092F002D4CB809195023C
:1027C00090919602A0919702B09198028093EC02AA
:1027D0009093ED02A093EE02B093EF020E949D024F
:1027E00040919502509196026091970270919802E3
:1027F00085E892E00E94F70681E08093EA02109259
:10280000EB0275E0E72EF12CF092F102E092F0027B
:1028100082EA91E04FCE0E94DC07882309F4AECF14
:102820008C149D04AE04BF040CF0A8CF8090EC0281
:102830009090ED02A090EE02B090EF02C090950251
:10284000D0909602E0909702F0909802C818D908AC
:10285000EA08FB082091CD023091CE024091CF02D0
:102860005091D0026091D5027091D6028091D7022A
:102870009091D8020E9443180E945617C61AD70A90
:10288000E80AF90A8C0C9D1CAE1CBF1C8092EC025D
:102890009092ED02A092EE02B092EF020E949D0291
:1028A0004091950250919602609197027091980222
:1028B00085E892E00E94F70681E08093EB02109297
:1028C000EA0225E030E03093F1022093F00280E844
:1028D00091E00E94C4096091D5027091D602809166
:1028E000D7029091D80241E050E00E94910B8BE713
:1028F00091E0E0CD8091640290916502A091660222
:10290000B0916702A7019601281B390B4A0B5B0B9C
:10291000DA01C901C297A105B10508F45FCB60E0F7
:10292000809161020E94E807C0926802D092690219
:10293000E0926A02F0926B0282E0809363024ECBD7
:102940008091680290916902A0916A02B0916B0235
:10295000C81AD90AEA0AFB0A30E2C31633E0D306E2
:10296000E104F10408F43ACB1092630237CB909162
:102970006C0290936D020E94B30721E0019709F069
:1029800020E020936C0233CB911109C080916F023B
:10299000909170020E94FF0981E080937F0220E005
:1029A00030E0A901C701B6010E943E1818160CF0CC
:1029B0008FC0F1E0F9832090730230907402409050
:1029C000750250907602C701B6019F77A20191016E
:1029D0000E9443186A83872E982EC92E8091800208
:1029E000D9808D111BC020918102309182024091CB
:1029F000830250918402782D892D9C2D0E9472169D
:102A00009F77A20191010E94E4162DEC3CEC4CEC66
:102A10005DE30E943E1818160CF09FCBA0906F0249
:102A2000B0907002F501EB5AFF4F3080D180E28008
:102A3000F380232D3D2DA7016A81782D892D9C2DB2
:102A40000E943E18181624F03A80D82CE92CFC2C51
:102A500020E030E040E85FE3632D7D2DC7010E9458
:102A6000DF1687FF06C0312CD12C50E8E52E6FE32E
:102A7000F62E432D5D2DB701C5010E947704E0902D
:102A80006F02F0907002F701E05BFF4F20E030E052
:102A90004AE754E460817181828193810E947316B8
:102AA000AB01BC0129812130B1F4C7010E94150A94
:102AB000D980D09280028A81982DA92DBC2D809337
:102AC000810290938202A0938302B093840245CB4B
:102AD0002FEF298370CF7058E8CF8037F1F083371C
:102AE00009F04DCB84E793E00E940E0B85E892E05D
:102AF0000E9416078091F0029091F102069709F06A
:102B00003ECB7092F1026092F00239CB83E993E000
:102B10000E940E0B0E941A0B32CB8FE793E00E94AB
:102B20000E0B10929502109296021092970210923C
:102B300098021092990210929A0210929B0210929F
:102B40009C021092B9021092BA021092BB0210922B
:102B5000BC02109288021092890210928A0210928E
:102B60008B0210929D0210929E0210929F02109270
:102B7000A0021092EC021092ED021092EE0210925E
:102B8000EF024091DA025091DB026091DC02709119
:102B9000DD0285E892E00E94770460E070E88BE354
:102BA00095E40E946E0A8091D1029091D202A09188
:102BB000D302B091D4028093D5029093D602A09311
:102BC000D702B093D80281E08093D9021092EA0232
:102BD0001092EB0245E0E42EF12CF092F102E0922B
:102BE000F002CDCA8091F0029091F102089709F0AD
:102BF000C6CA85E892E00E9416071092F102109270
:102C0000F00287EC92E00E940E0BB9CA89E591E0D0
:102C1000D6CA89E593E00E940E0BEECA82E593E0E6
:102C2000FACF89E493E0F7CF89E591E025CB8FE1F6
:102C300093E071CB89E193E07DCB8BE093E08FCB88
:102C40008EEF92E00E94C409A2CB89EF92E0FACF06
:102C500084EF92E0F7CFA1E21A2EAA1BBB1BFD0165
:102C60000DC0AA1FBB1FEE1FFF1FA217B307E4076B
:102C7000F50720F0A21BB30BE40BF50B661F771FC3
:102C8000881F991F1A9469F76095709580959095A3
:102C90009B01AC01BD01CF010895052E97FB1EF4E9
:102CA00000940E94641657FD07D00E942B1607FC63
:102CB00003D04EF40C9464165095409530952195B0
:102CC0003F4F4F4F5F4F0895909580957095619558
:102CD0007F4F8F4F9F4F0895EE0FFF1F0590F49188
:102CE000E02D09945058BB27AA270E948A160C94FD
:102CF00004180E94F61738F00E94FD1720F039F4EE
:102D00009F3F19F426F40C94F3170EF4E095E7FBBB
:102D10000C94ED17E92F0E94151858F3BA176207A3
:102D200073078407950720F079F4A6F50C943718FB
:102D30000EF4E0950B2EBA2FA02D0B01B9019001D6
:102D40000C01CA01A0011124FF27591B99F0593F1A
:102D500050F4503E68F11A16F040A22F232F342F62
:102D60004427585FF3CF469537952795A795F040B0
:102D70005395C9F77EF41F16BA0B620B730B840BC5
:102D8000BAF09150A1F0FF0FBB1F661F771F881F7D
:102D9000C2F70EC0BA0F621F731F841F48F48795D5
:102DA00077956795B795F7959E3F08F0B0CF9395C7
:102DB000880F08F09927EE0F9795879508950E9440
:102DC000C91708F481E008950E94F8160C940418BD
:102DD0000E94FD1758F00E94F61740F029F45F3F5B
:102DE00029F00C94ED1751110C9438180C94F3172A
:102DF0000E94151868F39923B1F3552391F3951B9D
:102E0000550BBB27AA2762177307840738F09F5F0B
:102E10005F4F220F331F441FAA1FA9F335D00E2E78
:102E20003AF0E0E832D091505040E695001CCAF7E5
:102E30002BD0FE2F29D0660F771F881FBB1F2617A8
:102E400037074807AB07B0E809F0BB0B802DBF017F
:102E5000FF2793585F4F3AF09E3F510578F00C944E
:102E6000ED170C9438185F3FE4F3983ED4F3869541
:102E700077956795B795F7959F5FC9F7880F911D6F
:102E80009695879597F90895E1E0660F771F881F5B
:102E9000BB1F621773078407BA0720F0621B730B0E
:102EA000840BBA0BEE1F88F7E09508950E945D171A
:102EB0006894B1110C94381808950E941D1888F078
:102EC0009F5798F0B92F9927B751B0F0E1F0660FEE
:102ED000771F881F991F1AF0BA95C9F714C0B1302F
:102EE00091F00E943718B1E008950C943718672FBD
:102EF000782F8827B85F39F0B93FCCF3869577955E
:102F00006795B395D9F73EF4909580957095619546
:102F10007F4F8F4F9F4F0895E89409C097FB3EF471
:102F200090958095709561957F4F8F4F9F4F992316
:102F3000A9F0F92F96E9BB279395F6958795779594
:102F40006795B795F111F8CFFAF4BB0F11F460FF54
:102F50001BC06F5F7F4F8F4F9F4F16C0882311F0AC
:102F600096E911C0772321F09EE8872F762F05C0C0
:102F7000662371F096E8862F70E060E02AF09A955B
:102F8000660F771F881FDAF7880F9695879597F950
:102F90000895990F0008550FAA0BE0E8FEEF1616EA
:102FA0001706E807F907C0F012161306E407F5073D
:102FB00098F0621B730B840B950B39F40A2661F0B1
:102FC000232B242B252B21F408950A2609F4A14054
:102FD000A6958FEF811D811D089597F99F6780E861
:102FE00070E060E008959FEF80EC089500240A945B
:102FF0001616170618060906089500240A941216D4
:103000001306140605060895092E0394000C11F406
:10301000882352F0BB0F40F4BF2B11F460FF04C0B3
:103020006F5F7F4F8F4F9F4F089557FD9058440F0C
:10303000551F59F05F3F71F04795880F97FB991F17
:1030400061F09F3F79F087950895121613061406D4
:10305000551FF2CF4695F1DF08C016161706180661
:10306000991FF1CF86957105610508940895E8943C
:10307000BB2766277727CB0197F908950E94C917C8
:1030800008F48FEF08950E9456180C9404180E94BB
:10309000F61738F00E94FD1720F0952311F00C94DC
:1030A000ED170C94F31711240C9438180E9415187E
:1030B00070F3959FC1F3950F50E0551F629FF0018B
:1030C000729FBB27F00DB11D639FAA27F00DB11DA4
:1030D000AA1F649F6627B00DA11D661F829F22272D
:1030E000B00DA11D621F739FB00DA11D621F839FB4
:1030F000A00D611D221F749F3327A00D611D231F8A
:10310000849F600D211D822F762F6A2F11249F57D7
:1031100050409AF0F1F088234AF0EE0FFF1FBB1FDA
:10312000661F771F881F91505040A9F79E3F510599
:1031300080F00C94ED170C9438185F3FE4F3983E40
:10314000D4F3869577956795B795F795E7959F5F43
:10315000C1F7FE2B880F911D9695879597F90895D5
:1031600019F416F40C94F3170C94FB180E941D1814
:10317000B8F39923C9F3B6F39F57550B87FF0E9405
:1031800009190024A0E640EA9001805856959795C9
:1031900028F4805C660F771F881F20F026173707FA
:1031A000480730F4621B730B840B202931294A2B0A
:1031B000A69517940794202531254A2758F7660FBE
:1031C000771F881F20F026173707480730F4620B57
:1031D000730B840B200D311D411DA09581F7B901A2
:1031E000842F9158880F9695879508950E94C91746
:1031F000880B990B08959F3F31F0915020F48795EB
:1032000077956795B795880F911D9695879597F94E
:10321000089591505040660F771F881FD2F7089588
:103220000F931F93CF93DF938230910510F482E0C8
:1032300090E0E091F402F091F50230E020E0B0E09F
:10324000A0E0309799F42115310509F44AC0281BF4
:10325000390B24303105D8F58A819B8161157105C0
:1032600089F1FB0193838283FE0111C0408151816A
:103270000281138148175907E0F04817590799F45C
:10328000109761F012960C93129713961C93329636
:10329000CF01DF91CF911F910F9108950093F40218
:1032A0001093F502F4CF2115310551F04217530761
:1032B00038F0A901DB019A01BD01DF01F801C1CF9E
:1032C000EF01F9CF9093F5028093F402CDCFFE0188
:1032D000E20FF31F819391932250310939832883A0
:1032E000D7CF2091F2023091F302232B41F42091A9
:1032F0000201309103013093F3022093F2022091F6
:103300000001309101012115310541F42DB73EB77F
:103310004091040150910501241B350BE091F2020C
:10332000F091F302E217F307A0F42E1B3F0B2817CE
:10333000390778F0AC014E5F5F4F2417350748F02E
:103340004E0F5F1F5093F3024093F20281939193CB
:103350009FCFF0E0E0E09CCFCF93DF930097E9F0C0
:10336000FC01329713821282A091F402B091F5020F
:10337000ED0130E020E01097A1F420813181820F2F
:10338000931F2091F2023091F3022817390709F0B8
:1033900061C0F093F302E093F202DF91CF910895C0
:1033A000EA01CE17DF07E8F54A815B819E014115EE
:1033B0005105B1F7E901FB83EA8349915991C40FA3
:1033C000D51FEC17FD0761F4808191810296840F6F
:1033D000951FE90199838883828193819B838A83E6
:1033E000F0E0E0E012968D919C9113970097B9F56B
:1033F0002D913C911197CD010296820F931F209140
:10340000F2023091F3022817390739F6309751F557
:103410001092F5021092F402B093F302A093F2021C
:10342000BCCFD383C28340815181840F951FC817BD
:10343000D90761F44E5F5F4F88819981480F591F0A
:10344000518340838A819B81938382832115310537
:1034500009F0B0CFF093F502E093F4029ECFFD01A6
:0E346000DC01C0CF13821282D7CFF894FFCFC9
:10346E000000F602800061016801740181018C0187
:10347E0096019C01A401AD01000000007709D70858
:10348E000409DF0935091309270900000000B908EE
:10349E00850889076B0CED04160837042104EF0329
:1034AE00CE039A0379032303F4020D0A006E616EB4
:1034BE0000696E66006F766600554E4B4E4F574E46
:1034CE0000554E494E495400484F4D494E475F48AE
:1034DE004F4D45004241434B4F46465F484F4D4589
:1034EE0000484F4D494E475F46415200544F5F438F
:1034FE00454E54455200484F4D45440052554E4E90
:10350E00494E470053544F5050494E47004641557F
:04351E004C54000009
:00000001FF
